{
  "contractName": "POS",
  "abi": [
    {
      "anonymous": false,
      "inputs": [
        {
          "indexed": true,
          "internalType": "address",
          "name": "owner",
          "type": "address"
        },
        {
          "indexed": true,
          "internalType": "uint256",
          "name": "id",
          "type": "uint256"
        }
      ],
      "name": "invoicePaid",
      "type": "event"
    },
    {
      "anonymous": false,
      "inputs": [
        {
          "indexed": true,
          "internalType": "address",
          "name": "buyer",
          "type": "address"
        },
        {
          "indexed": true,
          "internalType": "uint256",
          "name": "id",
          "type": "uint256"
        }
      ],
      "name": "newInvoice",
      "type": "event"
    },
    {
      "constant": true,
      "inputs": [],
      "name": "owner",
      "outputs": [
        {
          "internalType": "address",
          "name": "",
          "type": "address"
        }
      ],
      "payable": false,
      "stateMutability": "view",
      "type": "function"
    },
    {
      "constant": false,
      "inputs": [
        {
          "components": [
            {
              "internalType": "string",
              "name": "name",
              "type": "string"
            },
            {
              "internalType": "enum POS.Type",
              "name": "kind",
              "type": "uint8"
            },
            {
              "internalType": "uint256",
              "name": "price",
              "type": "uint256"
            },
            {
              "internalType": "uint256",
              "name": "usdPrice",
              "type": "uint256"
            },
            {
              "internalType": "uint256",
              "name": "quantity",
              "type": "uint256"
            },
            {
              "internalType": "string",
              "name": "upc",
              "type": "string"
            },
            {
              "internalType": "string",
              "name": "imageUrl",
              "type": "string"
            }
          ],
          "internalType": "struct POS.Product[]",
          "name": "products",
          "type": "tuple[]"
        },
        {
          "internalType": "uint256",
          "name": "discounts",
          "type": "uint256"
        },
        {
          "internalType": "address",
          "name": "buyer",
          "type": "address"
        },
        {
          "internalType": "address",
          "name": "beneficiary",
          "type": "address"
        }
      ],
      "name": "createInvoice",
      "outputs": [
        {
          "internalType": "uint256",
          "name": "",
          "type": "uint256"
        }
      ],
      "payable": false,
      "stateMutability": "nonpayable",
      "type": "function"
    },
    {
      "constant": true,
      "inputs": [
        {
          "components": [
            {
              "internalType": "string",
              "name": "name",
              "type": "string"
            },
            {
              "internalType": "enum POS.Type",
              "name": "kind",
              "type": "uint8"
            },
            {
              "internalType": "uint256",
              "name": "price",
              "type": "uint256"
            },
            {
              "internalType": "uint256",
              "name": "usdPrice",
              "type": "uint256"
            },
            {
              "internalType": "uint256",
              "name": "quantity",
              "type": "uint256"
            },
            {
              "internalType": "string",
              "name": "upc",
              "type": "string"
            },
            {
              "internalType": "string",
              "name": "imageUrl",
              "type": "string"
            }
          ],
          "internalType": "struct POS.Product[]",
          "name": "products",
          "type": "tuple[]"
        }
      ],
      "name": "getSubTotal",
      "outputs": [
        {
          "internalType": "uint256",
          "name": "subtotal",
          "type": "uint256"
        }
      ],
      "payable": false,
      "stateMutability": "pure",
      "type": "function"
    },
    {
      "constant": true,
      "inputs": [
        {
          "internalType": "uint256",
          "name": "id",
          "type": "uint256"
        }
      ],
      "name": "getInvoiceById",
      "outputs": [
        {
          "components": [
            {
              "internalType": "uint256",
              "name": "id",
              "type": "uint256"
            },
            {
              "internalType": "enum POS.Status",
              "name": "status",
              "type": "uint8"
            },
            {
              "internalType": "uint256",
              "name": "subtotal",
              "type": "uint256"
            },
            {
              "internalType": "uint256",
              "name": "discounts",
              "type": "uint256"
            },
            {
              "internalType": "uint256",
              "name": "total",
              "type": "uint256"
            },
            {
              "internalType": "address",
              "name": "owner",
              "type": "address"
            },
            {
              "internalType": "address",
              "name": "beneficiary",
              "type": "address"
            },
            {
              "internalType": "address",
              "name": "buyer",
              "type": "address"
            }
          ],
          "internalType": "struct POS.Invoice",
          "name": "",
          "type": "tuple"
        }
      ],
      "payable": false,
      "stateMutability": "view",
      "type": "function"
    },
    {
      "constant": true,
      "inputs": [
        {
          "internalType": "address",
          "name": "ownerA",
          "type": "address"
        }
      ],
      "name": "getInvoicesFor",
      "outputs": [
        {
          "components": [
            {
              "internalType": "uint256",
              "name": "id",
              "type": "uint256"
            },
            {
              "internalType": "enum POS.Status",
              "name": "status",
              "type": "uint8"
            },
            {
              "internalType": "uint256",
              "name": "subtotal",
              "type": "uint256"
            },
            {
              "internalType": "uint256",
              "name": "discounts",
              "type": "uint256"
            },
            {
              "internalType": "uint256",
              "name": "total",
              "type": "uint256"
            },
            {
              "internalType": "address",
              "name": "owner",
              "type": "address"
            },
            {
              "internalType": "address",
              "name": "beneficiary",
              "type": "address"
            },
            {
              "internalType": "address",
              "name": "buyer",
              "type": "address"
            }
          ],
          "internalType": "struct POS.Invoice[]",
          "name": "",
          "type": "tuple[]"
        }
      ],
      "payable": false,
      "stateMutability": "view",
      "type": "function"
    },
    {
      "constant": true,
      "inputs": [
        {
          "internalType": "uint256",
          "name": "id",
          "type": "uint256"
        }
      ],
      "name": "getInvoiceProducts",
      "outputs": [
        {
          "components": [
            {
              "internalType": "string",
              "name": "name",
              "type": "string"
            },
            {
              "internalType": "enum POS.Type",
              "name": "kind",
              "type": "uint8"
            },
            {
              "internalType": "uint256",
              "name": "price",
              "type": "uint256"
            },
            {
              "internalType": "uint256",
              "name": "usdPrice",
              "type": "uint256"
            },
            {
              "internalType": "uint256",
              "name": "quantity",
              "type": "uint256"
            },
            {
              "internalType": "string",
              "name": "upc",
              "type": "string"
            },
            {
              "internalType": "string",
              "name": "imageUrl",
              "type": "string"
            }
          ],
          "internalType": "struct POS.Product[]",
          "name": "",
          "type": "tuple[]"
        }
      ],
      "payable": false,
      "stateMutability": "view",
      "type": "function"
    },
    {
      "constant": true,
      "inputs": [
        {
          "components": [
            {
              "internalType": "string",
              "name": "name",
              "type": "string"
            },
            {
              "internalType": "enum POS.Type",
              "name": "kind",
              "type": "uint8"
            },
            {
              "internalType": "uint256",
              "name": "price",
              "type": "uint256"
            },
            {
              "internalType": "uint256",
              "name": "usdPrice",
              "type": "uint256"
            },
            {
              "internalType": "uint256",
              "name": "quantity",
              "type": "uint256"
            },
            {
              "internalType": "string",
              "name": "upc",
              "type": "string"
            },
            {
              "internalType": "string",
              "name": "imageUrl",
              "type": "string"
            }
          ],
          "internalType": "struct POS.Product[]",
          "name": "products",
          "type": "tuple[]"
        }
      ],
      "name": "validateProducts",
      "outputs": [
        {
          "internalType": "bool",
          "name": "",
          "type": "bool"
        }
      ],
      "payable": false,
      "stateMutability": "pure",
      "type": "function"
    },
    {
      "constant": false,
      "inputs": [
        {
          "internalType": "uint256",
          "name": "id",
          "type": "uint256"
        }
      ],
      "name": "deleteInvoice",
      "outputs": [
        {
          "internalType": "uint256",
          "name": "",
          "type": "uint256"
        }
      ],
      "payable": false,
      "stateMutability": "nonpayable",
      "type": "function"
    },
    {
      "constant": false,
      "inputs": [
        {
          "internalType": "uint256",
          "name": "id",
          "type": "uint256"
        }
      ],
      "name": "payInvoice",
      "outputs": [],
      "payable": true,
      "stateMutability": "payable",
      "type": "function"
    },
    {
      "constant": true,
      "inputs": [
        {
          "internalType": "address",
          "name": "beneficiary",
          "type": "address"
        }
      ],
      "name": "getBalanceOf",
      "outputs": [
        {
          "internalType": "uint256",
          "name": "",
          "type": "uint256"
        }
      ],
      "payable": false,
      "stateMutability": "view",
      "type": "function"
    }
  ],
  "bytecode": "0x6080604052336000806101000a81548173ffffffffffffffffffffffffffffffffffffffff021916908373ffffffffffffffffffffffffffffffffffffffff16021790555034801561005057600080fd5b506122bb806100606000396000f3fe6080604052600436106100915760003560e01c8063a0ed909611610059578063a0ed9096146101b5578063ac60a6cd146101f2578063b4e60ac21461020e578063bcb1c2e31461024b578063dafc74521461028857610091565b80630f5940311461009657806380c8610f146100d35780638da5cb5b1461011057806396d93d861461013b5780639b96eece14610178575b600080fd5b3480156100a257600080fd5b506100bd60048036036100b89190810190611b51565b6102c5565b6040516100ca9190611fe4565b60405180910390f35b3480156100df57600080fd5b506100fa60048036036100f59190810190611b51565b610474565b6040516101079190612000565b60405180910390f35b34801561011c57600080fd5b50610125610702565b6040516101329190611f4a565b60405180910390f35b34801561014757600080fd5b50610162600480360361015d9190810190611a6c565b610727565b60405161016f9190611f65565b60405180910390f35b34801561018457600080fd5b5061019f600480360361019a9190810190611a6c565b610a6b565b6040516101ac9190612000565b60405180910390f35b3480156101c157600080fd5b506101dc60048036036101d79190810190611a95565b610ab4565b6040516101e99190611fa9565b60405180910390f35b61020c60048036036102079190810190611b51565b610b6c565b005b34801561021a57600080fd5b5061023560048036036102309190810190611ad6565b610f0c565b6040516102429190612000565b60405180910390f35b34801561025757600080fd5b50610272600480360361026d9190810190611b51565b6112e3565b60405161027f9190611f87565b60405180910390f35b34801561029457600080fd5b506102af60048036036102aa9190810190611a95565b6115e0565b6040516102bc9190612000565b60405180910390f35b6102cd61165c565b8160028054905010156102df57600080fd5b600082116102ec57600080fd5b600260018303815481106102fc57fe5b906000526020600020906008020160405180610100016040529081600082015481526020016001820160009054906101000a900460ff16600281111561033e57fe5b600281111561034957fe5b81526020016002820154815260200160038201548152602001600482015481526020016005820160009054906101000a900473ffffffffffffffffffffffffffffffffffffffff1673ffffffffffffffffffffffffffffffffffffffff1673ffffffffffffffffffffffffffffffffffffffff1681526020016006820160009054906101000a900473ffffffffffffffffffffffffffffffffffffffff1673ffffffffffffffffffffffffffffffffffffffff1673ffffffffffffffffffffffffffffffffffffffff1681526020016007820160009054906101000a900473ffffffffffffffffffffffffffffffffffffffff1673ffffffffffffffffffffffffffffffffffffffff1673ffffffffffffffffffffffffffffffffffffffff16815250509050919050565b60008180600280549050101561048957600080fd5b61049161165c565b600260018303815481106104a157fe5b906000526020600020906008020160405180610100016040529081600082015481526020016001820160009054906101000a900460ff1660028111156104e357fe5b60028111156104ee57fe5b81526020016002820154815260200160038201548152602001600482015481526020016005820160009054906101000a900473ffffffffffffffffffffffffffffffffffffffff1673ffffffffffffffffffffffffffffffffffffffff1673ffffffffffffffffffffffffffffffffffffffff1681526020016006820160009054906101000a900473ffffffffffffffffffffffffffffffffffffffff1673ffffffffffffffffffffffffffffffffffffffff1673ffffffffffffffffffffffffffffffffffffffff1681526020016007820160009054906101000a900473ffffffffffffffffffffffffffffffffffffffff1673ffffffffffffffffffffffffffffffffffffffff1673ffffffffffffffffffffffffffffffffffffffff168152505090508181600001511461062457600080fd5b8361062d61165c565b610636826102c5565b90503373ffffffffffffffffffffffffffffffffffffffff168160a0015173ffffffffffffffffffffffffffffffffffffffff161461067457600080fd5b60006002600188038154811061068657fe5b90600052602060002090600802019050600160028111156106a357fe5b8160010160009054906101000a900460ff1660028111156106c057fe5b14156106cb57600080fd5b60028160010160006101000a81548160ff021916908360028111156106ec57fe5b0217905550806000015495505050505050919050565b6000809054906101000a900473ffffffffffffffffffffffffffffffffffffffff1681565b6060600080905060006064905060008090505b6002805490508110156107dc578473ffffffffffffffffffffffffffffffffffffffff166002828154811061076b57fe5b906000526020600020906008020160050160009054906101000a900473ffffffffffffffffffffffffffffffffffffffff1673ffffffffffffffffffffffffffffffffffffffff1614156107cf578280600101935050818314156107ce576107dc565b5b808060010191505061073a565b5060608260405190808252806020026020018201604052801561081957816020015b6108066116ee565b8152602001906001900390816107fe5790505b509050600080905060008090505b600280549050811015610a5e578673ffffffffffffffffffffffffffffffffffffffff166002828154811061085857fe5b906000526020600020906008020160050160009054906101000a900473ffffffffffffffffffffffffffffffffffffffff1673ffffffffffffffffffffffffffffffffffffffff161415610a5157600281815481106108b357fe5b906000526020600020906008020160405180610100016040529081600082015481526020016001820160009054906101000a900460ff1660028111156108f557fe5b600281111561090057fe5b81526020016002820154815260200160038201548152602001600482015481526020016005820160009054906101000a900473ffffffffffffffffffffffffffffffffffffffff1673ffffffffffffffffffffffffffffffffffffffff1673ffffffffffffffffffffffffffffffffffffffff1681526020016006820160009054906101000a900473ffffffffffffffffffffffffffffffffffffffff1673ffffffffffffffffffffffffffffffffffffffff1673ffffffffffffffffffffffffffffffffffffffff1681526020016007820160009054906101000a900473ffffffffffffffffffffffffffffffffffffffff1673ffffffffffffffffffffffffffffffffffffffff1673ffffffffffffffffffffffffffffffffffffffff1681525050838381518110610a3057fe5b6020026020010181905250818060010192505083821415610a5057610a5e565b5b8080600101915050610827565b5081945050505050919050565b6000600160008373ffffffffffffffffffffffffffffffffffffffff1673ffffffffffffffffffffffffffffffffffffffff168152602001908152602001600020549050919050565b6000805b8251811015610b5e57610ac9611780565b838281518110610ad557fe5b60200260200101519050600081606001511480610af6575060008160400151145b15610b0657600092505050610b67565b60008160c00151511415610b1f57600092505050610b67565b60008160a00151511415610b3857600092505050610b67565b600081608001511415610b5057600092505050610b67565b508080600101915050610ab8565b50600082511190505b919050565b80806002805490501015610b7f57600080fd5b610b8761165c565b60026001830381548110610b9757fe5b906000526020600020906008020160405180610100016040529081600082015481526020016001820160009054906101000a900460ff166002811115610bd957fe5b6002811115610be457fe5b81526020016002820154815260200160038201548152602001600482015481526020016005820160009054906101000a900473ffffffffffffffffffffffffffffffffffffffff1673ffffffffffffffffffffffffffffffffffffffff1673ffffffffffffffffffffffffffffffffffffffff1681526020016006820160009054906101000a900473ffffffffffffffffffffffffffffffffffffffff1673ffffffffffffffffffffffffffffffffffffffff1673ffffffffffffffffffffffffffffffffffffffff1681526020016007820160009054906101000a900473ffffffffffffffffffffffffffffffffffffffff1673ffffffffffffffffffffffffffffffffffffffff1673ffffffffffffffffffffffffffffffffffffffff1681525050905081816000015114610d1a57600080fd5b600060026001850381548110610d2c57fe5b906000526020600020906008020190503373ffffffffffffffffffffffffffffffffffffffff168160050160009054906101000a900473ffffffffffffffffffffffffffffffffffffffff1673ffffffffffffffffffffffffffffffffffffffff161415610d9957600080fd5b3373ffffffffffffffffffffffffffffffffffffffff168160060160009054906101000a900473ffffffffffffffffffffffffffffffffffffffff1673ffffffffffffffffffffffffffffffffffffffff161415610df657600080fd5b8060040154341015610e0757600080fd5b60018160010160006101000a81548160ff02191690836002811115610e2857fe5b021790555034600160008360060160009054906101000a900473ffffffffffffffffffffffffffffffffffffffff1673ffffffffffffffffffffffffffffffffffffffff1673ffffffffffffffffffffffffffffffffffffffff16815260200190815260200160002060008282540192505081905550838160050160009054906101000a900473ffffffffffffffffffffffffffffffffffffffff1673ffffffffffffffffffffffffffffffffffffffff167f31ae839fbb5474eb9debe2d6e404d1a807aa77b8c2f8530fea4025c5d2bcd1e360405160405180910390a350505050565b6000610f1785610ab4565b610f2057600080fd5b3373ffffffffffffffffffffffffffffffffffffffff168373ffffffffffffffffffffffffffffffffffffffff161415610f5957600080fd5b6000610f64866115e0565b905060008111610f7357600080fd5b6000858203905060008111610f8757600080fd5b6000610f91611635565b9050610f9b61165c565b60405180610100016040528083815260200160006002811115610fba57fe5b81526020018581526020018981526020018481526020013373ffffffffffffffffffffffffffffffffffffffff1681526020018773ffffffffffffffffffffffffffffffffffffffff1681526020018873ffffffffffffffffffffffffffffffffffffffff168152509050600281908060018154018082558091505090600182039060005260206000209060080201600090919290919091506000820151816000015560208201518160010160006101000a81548160ff0219169083600281111561108157fe5b021790555060408201518160020155606082015181600301556080820151816004015560a08201518160050160006101000a81548173ffffffffffffffffffffffffffffffffffffffff021916908373ffffffffffffffffffffffffffffffffffffffff16021790555060c08201518160060160006101000a81548173ffffffffffffffffffffffffffffffffffffffff021916908373ffffffffffffffffffffffffffffffffffffffff16021790555060e08201518160070160006101000a81548173ffffffffffffffffffffffffffffffffffffffff021916908373ffffffffffffffffffffffffffffffffffffffff160217905550505050600060036000848152602001908152602001600020905060005b8a5181101561128d57818b82815181106111ac57fe5b60200260200101519080600181540180825580915050906001820390600052602060002090600702016000909192909190915060008201518160000190805190602001906111fb9291906117c8565b5060208201518160010160006101000a81548160ff0219169083600181111561122057fe5b021790555060408201518160020155606082015181600301556080820151816004015560a082015181600501908051906020019061125f9291906117c8565b5060c082015181600601908051906020019061127c9291906117c8565b505050508080600101915050611196565b5060018873ffffffffffffffffffffffffffffffffffffffff167fdba9a337560de969904b8f5be2163a4ec10443fa7c30f6756f368a954770b1d960405160405180910390a38295505050505050949350505050565b60606112ed61165c565b6112f6836102c5565b90508281600001511461133e576040517f08c379a000000000000000000000000000000000000000000000000000000000815260040161133590611fc4565b60405180910390fd5b60036000848152602001908152602001600020805480602002602001604051908101604052809291908181526020016000905b828210156115d457838290600052602060002090600702016040518060e0016040529081600082018054600181600116156101000203166002900480601f01602080910402602001604051908101604052809291908181526020018280546001816001161561010002031660029004801561142d5780601f106114025761010080835404028352916020019161142d565b820191906000526020600020905b81548152906001019060200180831161141057829003601f168201915b505050505081526020016001820160009054906101000a900460ff16600181111561145457fe5b600181111561145f57fe5b8152602001600282015481526020016003820154815260200160048201548152602001600582018054600181600116156101000203166002900480601f01602080910402602001604051908101604052809291908181526020018280546001816001161561010002031660029004801561151a5780601f106114ef5761010080835404028352916020019161151a565b820191906000526020600020905b8154815290600101906020018083116114fd57829003601f168201915b50505050508152602001600682018054600181600116156101000203166002900480601f0160208091040260200160405190810160405280929190818152602001828054600181600116156101000203166002900480156115bc5780601f10611591576101008083540402835291602001916115bc565b820191906000526020600020905b81548152906001019060200180831161159f57829003601f168201915b50505050508152505081526020019060010190611371565b50505050915050919050565b6000805b825181101561162f578281815181106115f957fe5b60200260200101516080015183828151811061161157fe5b602002602001015160400151028201915080806001019150506115e4565b50919050565b600080600280549050141561164d5760019050611659565b60016002805490500190505b90565b604051806101000160405280600081526020016000600281111561167c57fe5b8152602001600081526020016000815260200160008152602001600073ffffffffffffffffffffffffffffffffffffffff168152602001600073ffffffffffffffffffffffffffffffffffffffff168152602001600073ffffffffffffffffffffffffffffffffffffffff1681525090565b604051806101000160405280600081526020016000600281111561170e57fe5b8152602001600081526020016000815260200160008152602001600073ffffffffffffffffffffffffffffffffffffffff168152602001600073ffffffffffffffffffffffffffffffffffffffff168152602001600073ffffffffffffffffffffffffffffffffffffffff1681525090565b6040518060e00160405280606081526020016000600181111561179f57fe5b815260200160008152602001600081526020016000815260200160608152602001606081525090565b828054600181600116156101000203166002900490600052602060002090601f016020900481019282601f1061180957805160ff1916838001178555611837565b82800160010185558215611837579182015b8281111561183657825182559160200191906001019061181b565b5b5090506118449190611848565b5090565b61186a91905b8082111561186657600081600090555060010161184e565b5090565b90565b60008135905061187c8161223a565b92915050565b600082601f83011261189357600080fd5b81356118a66118a182612048565b61201b565b9150818183526020840193506020810190508360005b838110156118ec57813586016118d2888261195f565b8452602084019350602083019250506001810190506118bc565b5050505092915050565b60008135905061190581612251565b92915050565b600082601f83011261191c57600080fd5b813561192f61192a82612070565b61201b565b9150808252602083016020830185838301111561194b57600080fd5b6119568382846121cd565b50505092915050565b600060e0828403121561197157600080fd5b61197b60e061201b565b9050600082013567ffffffffffffffff81111561199757600080fd5b6119a38482850161190b565b60008301525060206119b7848285016118f6565b60208301525060406119cb84828501611a57565b60408301525060606119df84828501611a57565b60608301525060806119f384828501611a57565b60808301525060a082013567ffffffffffffffff811115611a1357600080fd5b611a1f8482850161190b565b60a08301525060c082013567ffffffffffffffff811115611a3f57600080fd5b611a4b8482850161190b565b60c08301525092915050565b600081359050611a6681612261565b92915050565b600060208284031215611a7e57600080fd5b6000611a8c8482850161186d565b91505092915050565b600060208284031215611aa757600080fd5b600082013567ffffffffffffffff811115611ac157600080fd5b611acd84828501611882565b91505092915050565b60008060008060808587031215611aec57600080fd5b600085013567ffffffffffffffff811115611b0657600080fd5b611b1287828801611882565b9450506020611b2387828801611a57565b9350506040611b348782880161186d565b9250506060611b458782880161186d565b91505092959194509250565b600060208284031215611b6357600080fd5b6000611b7184828501611a57565b91505092915050565b6000611b868383611de0565b6101008301905092915050565b6000611b9f8383611e82565b905092915050565b611bb08161213b565b82525050565b611bbf8161213b565b82525050565b6000611bd0826120bc565b611bda81856120f7565b9350611be58361209c565b8060005b83811015611c16578151611bfd8882611b7a565b9750611c08836120dd565b925050600181019050611be9565b5085935050505092915050565b6000611c2e826120c7565b611c388185612108565b935083602082028501611c4a856120ac565b8060005b85811015611c865784840389528151611c678582611b93565b9450611c72836120ea565b925060208a01995050600181019050611c4e565b50829750879550505050505092915050565b611ca18161214d565b82525050565b611cb0816121a9565b82525050565b611cbf816121bb565b82525050565b6000611cd0826120d2565b611cda8185612119565b9350611cea8185602086016121dc565b611cf38161220f565b840191505092915050565b6000611d0b600f8361212a565b91507f49447320646f6e2774206d6174636800000000000000000000000000000000006000830152602082019050919050565b61010082016000820151611d556000850182611f2c565b506020820151611d686020850182611ca7565b506040820151611d7b6040850182611f2c565b506060820151611d8e6060850182611f2c565b506080820151611da16080850182611f2c565b5060a0820151611db460a0850182611ba7565b5060c0820151611dc760c0850182611ba7565b5060e0820151611dda60e0850182611ba7565b50505050565b61010082016000820151611df76000850182611f2c565b506020820151611e0a6020850182611ca7565b506040820151611e1d6040850182611f2c565b506060820151611e306060850182611f2c565b506080820151611e436080850182611f2c565b5060a0820151611e5660a0850182611ba7565b5060c0820151611e6960c0850182611ba7565b5060e0820151611e7c60e0850182611ba7565b50505050565b600060e0830160008301518482036000860152611e9f8282611cc5565b9150506020830151611eb46020860182611cb6565b506040830151611ec76040860182611f2c565b506060830151611eda6060860182611f2c565b506080830151611eed6080860182611f2c565b5060a083015184820360a0860152611f058282611cc5565b91505060c083015184820360c0860152611f1f8282611cc5565b9150508091505092915050565b611f358161219f565b82525050565b611f448161219f565b82525050565b6000602082019050611f5f6000830184611bb6565b92915050565b60006020820190508181036000830152611f7f8184611bc5565b905092915050565b60006020820190508181036000830152611fa18184611c23565b905092915050565b6000602082019050611fbe6000830184611c98565b92915050565b60006020820190508181036000830152611fdd81611cfe565b9050919050565b600061010082019050611ffa6000830184611d3e565b92915050565b60006020820190506120156000830184611f3b565b92915050565b6000604051905081810181811067ffffffffffffffff8211171561203e57600080fd5b8060405250919050565b600067ffffffffffffffff82111561205f57600080fd5b602082029050602081019050919050565b600067ffffffffffffffff82111561208757600080fd5b601f19601f8301169050602081019050919050565b6000819050602082019050919050565b6000819050602082019050919050565b600081519050919050565b600081519050919050565b600081519050919050565b6000602082019050919050565b6000602082019050919050565b600082825260208201905092915050565b600082825260208201905092915050565b600082825260208201905092915050565b600082825260208201905092915050565b60006121468261217f565b9050919050565b60008115159050919050565b600081905061216782612220565b919050565b600081905061217a8261222d565b919050565b600073ffffffffffffffffffffffffffffffffffffffff82169050919050565b6000819050919050565b60006121b482612159565b9050919050565b60006121c68261216c565b9050919050565b82818337600083830152505050565b60005b838110156121fa5780820151818401526020810190506121df565b83811115612209576000848401525b50505050565b6000601f19601f8301169050919050565b6003811061222a57fe5b50565b6002811061223757fe5b50565b6122438161213b565b811461224e57600080fd5b50565b6002811061225e57600080fd5b50565b61226a8161219f565b811461227557600080fd5b5056fea365627a7a7231582002ac4800cf3e8dca6ba6b0c4d4fc658e6b0b12b1c47c41766045c4e27a17d3866c6578706572696d656e74616cf564736f6c63430005100040",
  "source": "// SPDX-License-Identifier: MIT\npragma solidity >=0.5.16 <0.9.0;\npragma experimental ABIEncoderV2;\n\ncontract POS {\n    address public owner = msg.sender;\n\n    //Beneficiaris' balances\n    mapping(address => uint256) private balances;\n\n    Invoice[] private invoices;\n\n    mapping(uint => Product[]) private invoicesProducts;\n\n    //Events\n    event newInvoice(address indexed buyer, uint256 indexed id);\n    event invoicePaid(address indexed owner, uint256 indexed id);\n\n    // Types\n\n    enum Type {\n        Good,\n        Service\n    }\n\n    enum Status {\n        Pending,\n        Paid,\n        Deleted\n    }\n\n    struct Product {\n        string name;\n        Type kind;\n        uint256 price;\n        uint256 usdPrice;\n        uint256 quantity;\n        string upc;\n        string imageUrl;\n    }\n\n    struct Invoice {\n        uint256 id;\n        Status status;\n        uint256 subtotal;\n        uint256 discounts;\n        uint256 total;\n        address owner;\n        address beneficiary;\n        address buyer;\n    }\n\n\n    // Modifiers\n    modifier validInvoiceId(uint id ){\n        require(invoices.length >= id);\n        Invoice memory invoice = invoices[id - 1];\n        require(invoice.id == id);\n        _;\n    }\n\n    modifier invoiceOwner(uint id) {\n        Invoice memory invoice = getInvoiceById(id);\n        require(invoice.owner == msg.sender);\n        _;\n    }\n\n\n    function createInvoice(\n        Product[] memory products,\n        uint256 discounts,\n        address buyer,\n        address beneficiary\n    ) public returns (uint) {\n        //validations\n        require(validateProducts(products));\n        require(buyer != msg.sender);\n\n        uint subtotal = getSubTotal(products);\n        require(subtotal > 0);\n        uint total = subtotal - discounts;\n        require(total > 0);\n\n        uint id = getNextInvoceId();\n        Invoice memory invoice = Invoice({\n            id: id,\n            status: Status.Pending,\n            subtotal: subtotal,\n            discounts: discounts,\n            total: total,\n            owner: msg.sender,\n            buyer: buyer,\n            beneficiary: beneficiary\n        });\n        invoices.push(invoice);\n\n        Product[] storage container = invoicesProducts[id]; \n        for (uint i; i < products.length; i++){\n            container.push(products[i]);\n        }\n\n        emit newInvoice(buyer, 1);\n\n        return id;\n    }\n\n    function getNextInvoceId() private view returns (uint256) {\n        if (invoices.length == 0){\n            return 1;\n        }\n        return invoices.length + 1;\n    }\n\n    function getSubTotal(Product[] memory products)\n        public\n        pure\n        returns (uint256 subtotal)\n    {\n        for (uint256 i; i < products.length; i++) {\n            subtotal += products[i].price * products[i].quantity;\n        }\n    }\n\n    function getInvoiceById(uint256 id) public view returns (Invoice memory) {\n        require(invoices.length >= id);\n        require(id > 0);\n        return invoices[id - 1];\n    }\n\n    function getInvoicesFor(address ownerA) public view returns(Invoice[] memory){\n        uint len = 0;\n        uint MAX_ITEMS = 100;\n        for (uint i = 0; i < invoices.length; i++){\n            if (invoices[i].owner == ownerA){\n                len++;\n                if (len == MAX_ITEMS) break;\n            }\n        }\n        Invoice[] memory ownerInvoices = new Invoice[](len);\n        uint currentIndex = 0;\n        for (uint i = 0; i < invoices.length; i++){\n            if (invoices[i].owner == ownerA){\n                ownerInvoices[currentIndex] = invoices[i];\n                currentIndex++;\n                if (currentIndex == MAX_ITEMS) break;\n            }\n        }\n\n        return ownerInvoices;\n    }\n\n    function getInvoiceProducts(uint id) public view returns(Product[] memory) {\n        Invoice memory invoice = getInvoiceById(id);\n        require(invoice.id == id, \"IDs don't match\");\n        return invoicesProducts[id];\n    }\n\n    function validateProducts(Product[] memory products) public pure returns(bool) {\n        for (uint i; i < products.length; i++){\n            Product memory product = products[i];\n            if (product.usdPrice == 0 || product.price == 0) return false;\n            if (bytes(product.imageUrl).length == 0) return false;\n            if (bytes(product.upc).length == 0) return false;\n            if (product.quantity == 0) return false;\n\n        }\n        return products.length > 0;\n    }\n\n    function deleteInvoice(uint id) public validInvoiceId(id) invoiceOwner(id) returns(uint) {\n        Invoice storage invoice = invoices[id - 1];\n        require(invoice.status != Status.Paid);\n        invoice.status = Status.Deleted;\n        return invoice.id; \n    }\n\n    function payInvoice(uint id) public payable validInvoiceId(id) {\n        Invoice storage invoice = invoices[id  - 1];\n        require(invoice.owner != msg.sender);\n        require(invoice.beneficiary != msg.sender);\n        require(msg.value >= invoice.total);\n\n        invoice.status = Status.Paid;\n        balances[invoice.beneficiary] += msg.value;\n\n        emit invoicePaid(invoice.owner, id);\n    }\n\n    function getBalanceOf(address beneficiary) public view returns(uint) {\n        return balances[beneficiary];\n    }\n}\n",
  "sourcePath": "/Users/idekel/test_projects/bootcamp/blockchain-developer-bootcamp-final-project/contracts/POS.sol",
  "compiler": {
    "name": "solc",
    "version": "0.5.16+commit.9c3226ce.Emscripten.clang"
  },
  "schemaVersion": "3.4.3",
  "updatedAt": "2021-11-05T12:43:43.617Z",
  "networkType": "ethereum",
  "devdoc": {
    "methods": {}
  },
  "userdoc": {
    "methods": {}
  }
}