{
  "contractName": "POS",
  "abi": [
    {
      "anonymous": false,
      "inputs": [
        {
          "indexed": true,
          "internalType": "address",
          "name": "owner",
          "type": "address"
        },
        {
          "indexed": true,
          "internalType": "uint256",
          "name": "id",
          "type": "uint256"
        }
      ],
      "name": "invoicePaid",
      "type": "event"
    },
    {
      "anonymous": false,
      "inputs": [
        {
          "indexed": true,
          "internalType": "address",
          "name": "buyer",
          "type": "address"
        },
        {
          "indexed": true,
          "internalType": "uint256",
          "name": "id",
          "type": "uint256"
        }
      ],
      "name": "newInvoice",
      "type": "event"
    },
    {
      "constant": true,
      "inputs": [],
      "name": "owner",
      "outputs": [
        {
          "internalType": "address",
          "name": "",
          "type": "address"
        }
      ],
      "payable": false,
      "stateMutability": "view",
      "type": "function"
    },
    {
      "constant": false,
      "inputs": [
        {
          "components": [
            {
              "internalType": "string",
              "name": "name",
              "type": "string"
            },
            {
              "internalType": "enum POS.Type",
              "name": "kind",
              "type": "uint8"
            },
            {
              "internalType": "uint256",
              "name": "price",
              "type": "uint256"
            },
            {
              "internalType": "uint256",
              "name": "usdPrice",
              "type": "uint256"
            },
            {
              "internalType": "uint256",
              "name": "quantity",
              "type": "uint256"
            },
            {
              "internalType": "string",
              "name": "upc",
              "type": "string"
            },
            {
              "internalType": "string",
              "name": "imageUrl",
              "type": "string"
            }
          ],
          "internalType": "struct POS.Product[]",
          "name": "products",
          "type": "tuple[]"
        },
        {
          "internalType": "uint256",
          "name": "discounts",
          "type": "uint256"
        },
        {
          "internalType": "address",
          "name": "buyer",
          "type": "address"
        },
        {
          "internalType": "address",
          "name": "beneficiary",
          "type": "address"
        }
      ],
      "name": "createInvoice",
      "outputs": [
        {
          "internalType": "uint256",
          "name": "",
          "type": "uint256"
        }
      ],
      "payable": false,
      "stateMutability": "nonpayable",
      "type": "function"
    },
    {
      "constant": true,
      "inputs": [
        {
          "components": [
            {
              "internalType": "string",
              "name": "name",
              "type": "string"
            },
            {
              "internalType": "enum POS.Type",
              "name": "kind",
              "type": "uint8"
            },
            {
              "internalType": "uint256",
              "name": "price",
              "type": "uint256"
            },
            {
              "internalType": "uint256",
              "name": "usdPrice",
              "type": "uint256"
            },
            {
              "internalType": "uint256",
              "name": "quantity",
              "type": "uint256"
            },
            {
              "internalType": "string",
              "name": "upc",
              "type": "string"
            },
            {
              "internalType": "string",
              "name": "imageUrl",
              "type": "string"
            }
          ],
          "internalType": "struct POS.Product[]",
          "name": "products",
          "type": "tuple[]"
        }
      ],
      "name": "getSubTotal",
      "outputs": [
        {
          "internalType": "uint256",
          "name": "subtotal",
          "type": "uint256"
        }
      ],
      "payable": false,
      "stateMutability": "pure",
      "type": "function"
    },
    {
      "constant": true,
      "inputs": [
        {
          "internalType": "uint256",
          "name": "id",
          "type": "uint256"
        }
      ],
      "name": "getInvoiceById",
      "outputs": [
        {
          "components": [
            {
              "internalType": "uint256",
              "name": "id",
              "type": "uint256"
            },
            {
              "internalType": "enum POS.Status",
              "name": "status",
              "type": "uint8"
            },
            {
              "internalType": "uint256",
              "name": "subtotal",
              "type": "uint256"
            },
            {
              "internalType": "uint256",
              "name": "discounts",
              "type": "uint256"
            },
            {
              "internalType": "uint256",
              "name": "total",
              "type": "uint256"
            },
            {
              "internalType": "address",
              "name": "owner",
              "type": "address"
            },
            {
              "internalType": "address",
              "name": "beneficiary",
              "type": "address"
            },
            {
              "internalType": "address",
              "name": "buyer",
              "type": "address"
            }
          ],
          "internalType": "struct POS.Invoice",
          "name": "",
          "type": "tuple"
        }
      ],
      "payable": false,
      "stateMutability": "view",
      "type": "function"
    },
    {
      "constant": true,
      "inputs": [
        {
          "internalType": "uint256",
          "name": "id",
          "type": "uint256"
        }
      ],
      "name": "getInvoiceProducts",
      "outputs": [
        {
          "components": [
            {
              "internalType": "string",
              "name": "name",
              "type": "string"
            },
            {
              "internalType": "enum POS.Type",
              "name": "kind",
              "type": "uint8"
            },
            {
              "internalType": "uint256",
              "name": "price",
              "type": "uint256"
            },
            {
              "internalType": "uint256",
              "name": "usdPrice",
              "type": "uint256"
            },
            {
              "internalType": "uint256",
              "name": "quantity",
              "type": "uint256"
            },
            {
              "internalType": "string",
              "name": "upc",
              "type": "string"
            },
            {
              "internalType": "string",
              "name": "imageUrl",
              "type": "string"
            }
          ],
          "internalType": "struct POS.Product[]",
          "name": "",
          "type": "tuple[]"
        }
      ],
      "payable": false,
      "stateMutability": "view",
      "type": "function"
    },
    {
      "constant": true,
      "inputs": [
        {
          "components": [
            {
              "internalType": "string",
              "name": "name",
              "type": "string"
            },
            {
              "internalType": "enum POS.Type",
              "name": "kind",
              "type": "uint8"
            },
            {
              "internalType": "uint256",
              "name": "price",
              "type": "uint256"
            },
            {
              "internalType": "uint256",
              "name": "usdPrice",
              "type": "uint256"
            },
            {
              "internalType": "uint256",
              "name": "quantity",
              "type": "uint256"
            },
            {
              "internalType": "string",
              "name": "upc",
              "type": "string"
            },
            {
              "internalType": "string",
              "name": "imageUrl",
              "type": "string"
            }
          ],
          "internalType": "struct POS.Product[]",
          "name": "products",
          "type": "tuple[]"
        }
      ],
      "name": "validateProducts",
      "outputs": [
        {
          "internalType": "bool",
          "name": "",
          "type": "bool"
        }
      ],
      "payable": false,
      "stateMutability": "pure",
      "type": "function"
    },
    {
      "constant": false,
      "inputs": [
        {
          "internalType": "uint256",
          "name": "id",
          "type": "uint256"
        }
      ],
      "name": "deleteInvoice",
      "outputs": [
        {
          "internalType": "uint256",
          "name": "",
          "type": "uint256"
        }
      ],
      "payable": false,
      "stateMutability": "nonpayable",
      "type": "function"
    },
    {
      "constant": false,
      "inputs": [
        {
          "internalType": "uint256",
          "name": "id",
          "type": "uint256"
        }
      ],
      "name": "payInvoice",
      "outputs": [],
      "payable": true,
      "stateMutability": "payable",
      "type": "function"
    },
    {
      "constant": true,
      "inputs": [
        {
          "internalType": "address",
          "name": "beneficiary",
          "type": "address"
        }
      ],
      "name": "getBalanceOf",
      "outputs": [
        {
          "internalType": "uint256",
          "name": "",
          "type": "uint256"
        }
      ],
      "payable": false,
      "stateMutability": "view",
      "type": "function"
    }
  ],
  "bytecode": "0x6080604052336000806101000a81548173ffffffffffffffffffffffffffffffffffffffff021916908373ffffffffffffffffffffffffffffffffffffffff16021790555034801561005057600080fd5b50611d26806100606000396000f3fe6080604052600436106100865760003560e01c8063a0ed909611610059578063a0ed90961461016d578063ac60a6cd146101aa578063b4e60ac2146101c6578063bcb1c2e314610203578063dafc74521461024057610086565b80630f5940311461008b57806380c8610f146100c85780638da5cb5b146101055780639b96eece14610130575b600080fd5b34801561009757600080fd5b506100b260048036036100ad9190810190611730565b61027d565b6040516100bf9190611a88565b60405180910390f35b3480156100d457600080fd5b506100ef60048036036100ea9190810190611730565b61042c565b6040516100fc9190611aa4565b60405180910390f35b34801561011157600080fd5b5061011a6106ba565b6040516101279190611a10565b60405180910390f35b34801561013c57600080fd5b506101576004803603610152919081019061164b565b6106df565b6040516101649190611aa4565b60405180910390f35b34801561017957600080fd5b50610194600480360361018f9190810190611674565b610728565b6040516101a19190611a4d565b60405180910390f35b6101c460048036036101bf9190810190611730565b6107e0565b005b3480156101d257600080fd5b506101ed60048036036101e891908101906116b5565b610b80565b6040516101fa9190611aa4565b60405180910390f35b34801561020f57600080fd5b5061022a60048036036102259190810190611730565b610f57565b6040516102379190611a2b565b60405180910390f35b34801561024c57600080fd5b5061026760048036036102629190810190611674565b611254565b6040516102749190611aa4565b60405180910390f35b6102856112cd565b81600280549050101561029757600080fd5b600082116102a457600080fd5b600260018303815481106102b457fe5b906000526020600020906008020160405180610100016040529081600082015481526020016001820160009054906101000a900460ff1660028111156102f657fe5b600281111561030157fe5b81526020016002820154815260200160038201548152602001600482015481526020016005820160009054906101000a900473ffffffffffffffffffffffffffffffffffffffff1673ffffffffffffffffffffffffffffffffffffffff1673ffffffffffffffffffffffffffffffffffffffff1681526020016006820160009054906101000a900473ffffffffffffffffffffffffffffffffffffffff1673ffffffffffffffffffffffffffffffffffffffff1673ffffffffffffffffffffffffffffffffffffffff1681526020016007820160009054906101000a900473ffffffffffffffffffffffffffffffffffffffff1673ffffffffffffffffffffffffffffffffffffffff1673ffffffffffffffffffffffffffffffffffffffff16815250509050919050565b60008180600280549050101561044157600080fd5b6104496112cd565b6002600183038154811061045957fe5b906000526020600020906008020160405180610100016040529081600082015481526020016001820160009054906101000a900460ff16600281111561049b57fe5b60028111156104a657fe5b81526020016002820154815260200160038201548152602001600482015481526020016005820160009054906101000a900473ffffffffffffffffffffffffffffffffffffffff1673ffffffffffffffffffffffffffffffffffffffff1673ffffffffffffffffffffffffffffffffffffffff1681526020016006820160009054906101000a900473ffffffffffffffffffffffffffffffffffffffff1673ffffffffffffffffffffffffffffffffffffffff1673ffffffffffffffffffffffffffffffffffffffff1681526020016007820160009054906101000a900473ffffffffffffffffffffffffffffffffffffffff1673ffffffffffffffffffffffffffffffffffffffff1673ffffffffffffffffffffffffffffffffffffffff16815250509050818160000151146105dc57600080fd5b836105e56112cd565b6105ee8261027d565b90503373ffffffffffffffffffffffffffffffffffffffff168160a0015173ffffffffffffffffffffffffffffffffffffffff161461062c57600080fd5b60006002600188038154811061063e57fe5b906000526020600020906008020190506001600281111561065b57fe5b8160010160009054906101000a900460ff16600281111561067857fe5b141561068357600080fd5b60028160010160006101000a81548160ff021916908360028111156106a457fe5b0217905550806000015495505050505050919050565b6000809054906101000a900473ffffffffffffffffffffffffffffffffffffffff1681565b6000600160008373ffffffffffffffffffffffffffffffffffffffff1673ffffffffffffffffffffffffffffffffffffffff168152602001908152602001600020549050919050565b6000805b82518110156107d25761073d61135f565b83828151811061074957fe5b6020026020010151905060008160600151148061076a575060008160400151145b1561077a576000925050506107db565b60008160c00151511415610793576000925050506107db565b60008160a001515114156107ac576000925050506107db565b6000816080015114156107c4576000925050506107db565b50808060010191505061072c565b50600082511190505b919050565b808060028054905010156107f357600080fd5b6107fb6112cd565b6002600183038154811061080b57fe5b906000526020600020906008020160405180610100016040529081600082015481526020016001820160009054906101000a900460ff16600281111561084d57fe5b600281111561085857fe5b81526020016002820154815260200160038201548152602001600482015481526020016005820160009054906101000a900473ffffffffffffffffffffffffffffffffffffffff1673ffffffffffffffffffffffffffffffffffffffff1673ffffffffffffffffffffffffffffffffffffffff1681526020016006820160009054906101000a900473ffffffffffffffffffffffffffffffffffffffff1673ffffffffffffffffffffffffffffffffffffffff1673ffffffffffffffffffffffffffffffffffffffff1681526020016007820160009054906101000a900473ffffffffffffffffffffffffffffffffffffffff1673ffffffffffffffffffffffffffffffffffffffff1673ffffffffffffffffffffffffffffffffffffffff168152505090508181600001511461098e57600080fd5b6000600260018503815481106109a057fe5b906000526020600020906008020190503373ffffffffffffffffffffffffffffffffffffffff168160050160009054906101000a900473ffffffffffffffffffffffffffffffffffffffff1673ffffffffffffffffffffffffffffffffffffffff161415610a0d57600080fd5b3373ffffffffffffffffffffffffffffffffffffffff168160060160009054906101000a900473ffffffffffffffffffffffffffffffffffffffff1673ffffffffffffffffffffffffffffffffffffffff161415610a6a57600080fd5b8060040154341015610a7b57600080fd5b60018160010160006101000a81548160ff02191690836002811115610a9c57fe5b021790555034600160008360060160009054906101000a900473ffffffffffffffffffffffffffffffffffffffff1673ffffffffffffffffffffffffffffffffffffffff1673ffffffffffffffffffffffffffffffffffffffff16815260200190815260200160002060008282540192505081905550838160050160009054906101000a900473ffffffffffffffffffffffffffffffffffffffff1673ffffffffffffffffffffffffffffffffffffffff167f31ae839fbb5474eb9debe2d6e404d1a807aa77b8c2f8530fea4025c5d2bcd1e360405160405180910390a350505050565b6000610b8b85610728565b610b9457600080fd5b3373ffffffffffffffffffffffffffffffffffffffff168373ffffffffffffffffffffffffffffffffffffffff161415610bcd57600080fd5b6000610bd886611254565b905060008111610be757600080fd5b6000858203905060008111610bfb57600080fd5b6000610c056112a9565b9050610c0f6112cd565b60405180610100016040528083815260200160006002811115610c2e57fe5b81526020018581526020018981526020018481526020013373ffffffffffffffffffffffffffffffffffffffff1681526020018773ffffffffffffffffffffffffffffffffffffffff1681526020018873ffffffffffffffffffffffffffffffffffffffff168152509050600281908060018154018082558091505090600182039060005260206000209060080201600090919290919091506000820151816000015560208201518160010160006101000a81548160ff02191690836002811115610cf557fe5b021790555060408201518160020155606082015181600301556080820151816004015560a08201518160050160006101000a81548173ffffffffffffffffffffffffffffffffffffffff021916908373ffffffffffffffffffffffffffffffffffffffff16021790555060c08201518160060160006101000a81548173ffffffffffffffffffffffffffffffffffffffff021916908373ffffffffffffffffffffffffffffffffffffffff16021790555060e08201518160070160006101000a81548173ffffffffffffffffffffffffffffffffffffffff021916908373ffffffffffffffffffffffffffffffffffffffff160217905550505050600060036000848152602001908152602001600020905060005b8a51811015610f0157818b8281518110610e2057fe5b6020026020010151908060018154018082558091505090600182039060005260206000209060070201600090919290919091506000820151816000019080519060200190610e6f9291906113a7565b5060208201518160010160006101000a81548160ff02191690836001811115610e9457fe5b021790555060408201518160020155606082015181600301556080820151816004015560a0820151816005019080519060200190610ed39291906113a7565b5060c0820151816006019080519060200190610ef09291906113a7565b505050508080600101915050610e0a565b5060018873ffffffffffffffffffffffffffffffffffffffff167fdba9a337560de969904b8f5be2163a4ec10443fa7c30f6756f368a954770b1d960405160405180910390a38295505050505050949350505050565b6060610f616112cd565b610f6a8361027d565b905082816000015114610fb2576040517f08c379a0000000000000000000000000000000000000000000000000000000008152600401610fa990611a68565b60405180910390fd5b60036000848152602001908152602001600020805480602002602001604051908101604052809291908181526020016000905b8282101561124857838290600052602060002090600702016040518060e0016040529081600082018054600181600116156101000203166002900480601f0160208091040260200160405190810160405280929190818152602001828054600181600116156101000203166002900480156110a15780601f10611076576101008083540402835291602001916110a1565b820191906000526020600020905b81548152906001019060200180831161108457829003601f168201915b505050505081526020016001820160009054906101000a900460ff1660018111156110c857fe5b60018111156110d357fe5b8152602001600282015481526020016003820154815260200160048201548152602001600582018054600181600116156101000203166002900480601f01602080910402602001604051908101604052809291908181526020018280546001816001161561010002031660029004801561118e5780601f106111635761010080835404028352916020019161118e565b820191906000526020600020905b81548152906001019060200180831161117157829003601f168201915b50505050508152602001600682018054600181600116156101000203166002900480601f0160208091040260200160405190810160405280929190818152602001828054600181600116156101000203166002900480156112305780601f1061120557610100808354040283529160200191611230565b820191906000526020600020905b81548152906001019060200180831161121357829003601f168201915b50505050508152505081526020019060010190610fe5565b50505050915050919050565b6000805b82518110156112a35782818151811061126d57fe5b60200260200101516080015183828151811061128557fe5b60200260200101516040015102820191508080600101915050611258565b50919050565b60008060028054905014156112c157600190506112ca565b60028054905090505b90565b60405180610100016040528060008152602001600060028111156112ed57fe5b8152602001600081526020016000815260200160008152602001600073ffffffffffffffffffffffffffffffffffffffff168152602001600073ffffffffffffffffffffffffffffffffffffffff168152602001600073ffffffffffffffffffffffffffffffffffffffff1681525090565b6040518060e00160405280606081526020016000600181111561137e57fe5b815260200160008152602001600081526020016000815260200160608152602001606081525090565b828054600181600116156101000203166002900490600052602060002090601f016020900481019282601f106113e857805160ff1916838001178555611416565b82800160010185558215611416579182015b828111156114155782518255916020019190600101906113fa565b5b5090506114239190611427565b5090565b61144991905b8082111561144557600081600090555060010161142d565b5090565b90565b60008135905061145b81611ca5565b92915050565b600082601f83011261147257600080fd5b813561148561148082611aec565b611abf565b9150818183526020840193506020810190508360005b838110156114cb57813586016114b1888261153e565b84526020840193506020830192505060018101905061149b565b5050505092915050565b6000813590506114e481611cbc565b92915050565b600082601f8301126114fb57600080fd5b813561150e61150982611b14565b611abf565b9150808252602083016020830185838301111561152a57600080fd5b611535838284611c38565b50505092915050565b600060e0828403121561155057600080fd5b61155a60e0611abf565b9050600082013567ffffffffffffffff81111561157657600080fd5b611582848285016114ea565b6000830152506020611596848285016114d5565b60208301525060406115aa84828501611636565b60408301525060606115be84828501611636565b60608301525060806115d284828501611636565b60808301525060a082013567ffffffffffffffff8111156115f257600080fd5b6115fe848285016114ea565b60a08301525060c082013567ffffffffffffffff81111561161e57600080fd5b61162a848285016114ea565b60c08301525092915050565b60008135905061164581611ccc565b92915050565b60006020828403121561165d57600080fd5b600061166b8482850161144c565b91505092915050565b60006020828403121561168657600080fd5b600082013567ffffffffffffffff8111156116a057600080fd5b6116ac84828501611461565b91505092915050565b600080600080608085870312156116cb57600080fd5b600085013567ffffffffffffffff8111156116e557600080fd5b6116f187828801611461565b945050602061170287828801611636565b93505060406117138782880161144c565b92505060606117248782880161144c565b91505092959194509250565b60006020828403121561174257600080fd5b600061175084828501611636565b91505092915050565b60006117658383611948565b905092915050565b61177681611ba6565b82525050565b61178581611ba6565b82525050565b600061179682611b50565b6117a08185611b73565b9350836020820285016117b285611b40565b8060005b858110156117ee57848403895281516117cf8582611759565b94506117da83611b66565b925060208a019950506001810190506117b6565b50829750879550505050505092915050565b61180981611bb8565b82525050565b61181881611c14565b82525050565b61182781611c26565b82525050565b600061183882611b5b565b6118428185611b84565b9350611852818560208601611c47565b61185b81611c7a565b840191505092915050565b6000611873600f83611b95565b91507f49447320646f6e2774206d6174636800000000000000000000000000000000006000830152602082019050919050565b610100820160008201516118bd60008501826119f2565b5060208201516118d0602085018261180f565b5060408201516118e360408501826119f2565b5060608201516118f660608501826119f2565b50608082015161190960808501826119f2565b5060a082015161191c60a085018261176d565b5060c082015161192f60c085018261176d565b5060e082015161194260e085018261176d565b50505050565b600060e0830160008301518482036000860152611965828261182d565b915050602083015161197a602086018261181e565b50604083015161198d60408601826119f2565b5060608301516119a060608601826119f2565b5060808301516119b360808601826119f2565b5060a083015184820360a08601526119cb828261182d565b91505060c083015184820360c08601526119e5828261182d565b9150508091505092915050565b6119fb81611c0a565b82525050565b611a0a81611c0a565b82525050565b6000602082019050611a25600083018461177c565b92915050565b60006020820190508181036000830152611a45818461178b565b905092915050565b6000602082019050611a626000830184611800565b92915050565b60006020820190508181036000830152611a8181611866565b9050919050565b600061010082019050611a9e60008301846118a6565b92915050565b6000602082019050611ab96000830184611a01565b92915050565b6000604051905081810181811067ffffffffffffffff82111715611ae257600080fd5b8060405250919050565b600067ffffffffffffffff821115611b0357600080fd5b602082029050602081019050919050565b600067ffffffffffffffff821115611b2b57600080fd5b601f19601f8301169050602081019050919050565b6000819050602082019050919050565b600081519050919050565b600081519050919050565b6000602082019050919050565b600082825260208201905092915050565b600082825260208201905092915050565b600082825260208201905092915050565b6000611bb182611bea565b9050919050565b60008115159050919050565b6000819050611bd282611c8b565b919050565b6000819050611be582611c98565b919050565b600073ffffffffffffffffffffffffffffffffffffffff82169050919050565b6000819050919050565b6000611c1f82611bc4565b9050919050565b6000611c3182611bd7565b9050919050565b82818337600083830152505050565b60005b83811015611c65578082015181840152602081019050611c4a565b83811115611c74576000848401525b50505050565b6000601f19601f8301169050919050565b60038110611c9557fe5b50565b60028110611ca257fe5b50565b611cae81611ba6565b8114611cb957600080fd5b50565b60028110611cc957600080fd5b50565b611cd581611c0a565b8114611ce057600080fd5b5056fea365627a7a72315820583506ad77c5b8f74068335a8b1654d8bbcc4a25e7f0a0807ac344384fdf08676c6578706572696d656e74616cf564736f6c63430005100040",
  "source": "// SPDX-License-Identifier: MIT\npragma solidity >=0.5.16 <0.9.0;\npragma experimental ABIEncoderV2;\n\ncontract POS {\n    address public owner = msg.sender;\n\n    //Beneficiaris' balances\n    mapping(address => uint256) private balances;\n\n    Invoice[] private invoices;\n\n    mapping(uint => Product[]) private invoicesProducts;\n\n    //Events\n    event newInvoice(address indexed buyer, uint256 indexed id);\n    event invoicePaid(address indexed owner, uint256 indexed id);\n\n    // Types\n\n    enum Type {\n        Good,\n        Service\n    }\n\n    enum Status {\n        Pending,\n        Paid,\n        Deleted\n    }\n\n    struct Product {\n        string name;\n        Type kind;\n        uint256 price;\n        uint256 usdPrice;\n        uint256 quantity;\n        string upc;\n        string imageUrl;\n    }\n\n    struct Invoice {\n        uint256 id;\n        Status status;\n        uint256 subtotal;\n        uint256 discounts;\n        uint256 total;\n        address owner;\n        address beneficiary;\n        address buyer;\n    }\n\n\n    // Modifiers\n    modifier validInvoiceId(uint id ){\n        require(invoices.length >= id);\n        Invoice memory invoice = invoices[id - 1];\n        require(invoice.id == id);\n        _;\n    }\n\n    modifier invoiceOwner(uint id) {\n        Invoice memory invoice = getInvoiceById(id);\n        require(invoice.owner == msg.sender);\n        _;\n    }\n\n\n    function createInvoice(\n        Product[] memory products,\n        uint256 discounts,\n        address buyer,\n        address beneficiary\n    ) public returns (uint) {\n        //validations\n        require(validateProducts(products));\n        require(buyer != msg.sender);\n\n        uint subtotal = getSubTotal(products);\n        require(subtotal > 0);\n        uint total = subtotal - discounts;\n        require(total > 0);\n\n        uint id = getNextInvoceId();\n        Invoice memory invoice = Invoice({\n            id: id,\n            status: Status.Pending,\n            subtotal: subtotal,\n            discounts: discounts,\n            total: total,\n            owner: msg.sender,\n            buyer: buyer,\n            beneficiary: beneficiary\n        });\n        invoices.push(invoice);\n\n        Product[] storage container = invoicesProducts[id]; \n        for (uint i; i < products.length; i++){\n            container.push(products[i]);\n        }\n\n        emit newInvoice(buyer, 1);\n\n        return id;\n    }\n\n    function getNextInvoceId() private view returns (uint256) {\n        if (invoices.length == 0){\n            return 1;\n        }\n        return invoices.length;\n    }\n\n    function getSubTotal(Product[] memory products)\n        public\n        pure\n        returns (uint256 subtotal)\n    {\n        for (uint256 i; i < products.length; i++) {\n            subtotal += products[i].price * products[i].quantity;\n        }\n    }\n\n    function getInvoiceById(uint256 id) public view returns (Invoice memory) {\n        require(invoices.length >= id);\n        require(id > 0);\n        return invoices[id - 1];\n    }\n\n    function getInvoiceProducts(uint id) public view returns(Product[] memory) {\n        Invoice memory invoice = getInvoiceById(id);\n        require(invoice.id == id, \"IDs don't match\");\n        return invoicesProducts[id];\n    }\n\n    function validateProducts(Product[] memory products) public pure returns(bool) {\n        for (uint i; i < products.length; i++){\n            Product memory product = products[i];\n            if (product.usdPrice == 0 || product.price == 0) return false;\n            if (bytes(product.imageUrl).length == 0) return false;\n            if (bytes(product.upc).length == 0) return false;\n            if (product.quantity == 0) return false;\n\n        }\n        return products.length > 0;\n    }\n\n    function deleteInvoice(uint id) public validInvoiceId(id) invoiceOwner(id) returns(uint) {\n        Invoice storage invoice = invoices[id - 1];\n        require(invoice.status != Status.Paid);\n        invoice.status = Status.Deleted;\n        return invoice.id; \n    }\n\n    function payInvoice(uint id) public payable validInvoiceId(id) {\n        Invoice storage invoice = invoices[id  - 1];\n        require(invoice.owner != msg.sender);\n        require(invoice.beneficiary != msg.sender);\n        require(msg.value >= invoice.total);\n\n        invoice.status = Status.Paid;\n        balances[invoice.beneficiary] += msg.value;\n\n        emit invoicePaid(invoice.owner, id);\n    }\n\n    function getBalanceOf(address beneficiary) public view returns(uint) {\n        return balances[beneficiary];\n    }\n}\n",
  "sourcePath": "/Users/idekel/test_projects/bootcamp/blockchain-developer-bootcamp-final-project/contracts/POS.sol",
  "compiler": {
    "name": "solc",
    "version": "0.5.16+commit.9c3226ce.Emscripten.clang"
  },
  "schemaVersion": "3.4.3",
  "updatedAt": "2021-10-29T14:01:05.441Z",
  "networkType": "ethereum",
  "devdoc": {
    "methods": {}
  },
  "userdoc": {
    "methods": {}
  }
}